{
  "contractName": "Functional",
  "abi": [
    {
      "constant": true,
      "inputs": [],
      "name": "_initialized",
      "outputs": [
        {
          "name": "",
          "type": "bool"
        }
      ],
      "payable": false,
      "stateMutability": "view",
      "type": "function"
    },
    {
      "constant": true,
      "inputs": [],
      "name": "owner",
      "outputs": [
        {
          "name": "",
          "type": "address"
        }
      ],
      "payable": false,
      "stateMutability": "view",
      "type": "function"
    },
    {
      "inputs": [],
      "payable": false,
      "stateMutability": "nonpayable",
      "type": "constructor"
    },
    {
      "constant": true,
      "inputs": [],
      "name": "getNumberOfDogs",
      "outputs": [
        {
          "name": "",
          "type": "uint256"
        }
      ],
      "payable": false,
      "stateMutability": "view",
      "type": "function"
    },
    {
      "constant": false,
      "inputs": [
        {
          "name": "toSet",
          "type": "uint256"
        }
      ],
      "name": "setNumberOfDogs",
      "outputs": [],
      "payable": false,
      "stateMutability": "nonpayable",
      "type": "function"
    }
  ],
  "bytecode": "0x608060405234801561001057600080fd5b5033600560006101000a81548173ffffffffffffffffffffffffffffffffffffffff021916908373ffffffffffffffffffffffffffffffffffffffff160217905550610243806100616000396000f3fe608060405260043610610062576000357c0100000000000000000000000000000000000000000000000000000000900463ffffffff16806314861b22146100675780631680a5ed146100a25780633072cf60146100cd5780638da5cb5b146100fc575b600080fd5b34801561007357600080fd5b506100a06004803603602081101561008a57600080fd5b8101908080359060200190929190505050610153565b005b3480156100ae57600080fd5b506100b7610199565b6040518082815260200191505060405180910390f35b3480156100d957600080fd5b506100e26101de565b604051808215151515815260200191505060405180910390f35b34801561010857600080fd5b506101116101f1565b604051808273ffffffffffffffffffffffffffffffffffffffff1673ffffffffffffffffffffffffffffffffffffffff16815260200191505060405180910390f35b80600060405180807f446f677300000000000000000000000000000000000000000000000000000000815250600401905090815260200160405180910390208190555050565b60008060405180807f446f6773000000000000000000000000000000000000000000000000000000008152506004019050908152602001604051809103902054905090565b600560149054906101000a900460ff1681565b600560009054906101000a900473ffffffffffffffffffffffffffffffffffffffff168156fea165627a7a72305820db2b46fca1a5e34476fd79faeecd150152a57c0a9e9cc5ce9bd9f23ffe96270c0029",
  "source": "pragma solidity 0.5.0;\r\nimport \"./Storage.sol\";\r\n\r\ncontract Functional is Storage{\r\n\r\n  constructor() public{\r\n    owner = msg.sender;\r\n  }\r\n\r\n  modifier onlyOwner(){\r\n    require(msg.sender == owner);\r\n    _;\r\n  }\r\n\r\n  function getNumberOfDogs() public view returns(uint256){\r\n    return _uintStorage[\"Dogs\"];\r\n  }\r\n\r\n  function setNumberOfDogs(uint256 toSet) public{\r\n    _uintStorage[\"Dogs\"] = toSet;\r\n  }\r\n\r\n}\r\n",
  "sourcePath": "C:/Users/AlexMiloski/Documents/Studies/Blockchain/Ethereum Smart Contract Security/proxyContract/contracts/functional.sol",
  "compiler": {
    "name": "solc",
    "version": "0.5.0+commit.1d4f565a.Emscripten.clang"
  },
  "schemaVersion": "3.0.8",
  "updatedAt": "2020-07-10T09:42:31.472Z",
  "devdoc": {
    "methods": {}
  },
  "userdoc": {
    "methods": {}
  }
}