{
  "contractName": "FunctionalUpdated",
  "abi": [
    {
      "constant": true,
      "inputs": [],
      "name": "_initialized",
      "outputs": [
        {
          "name": "",
          "type": "bool"
        }
      ],
      "payable": false,
      "stateMutability": "view",
      "type": "function"
    },
    {
      "constant": true,
      "inputs": [],
      "name": "owner",
      "outputs": [
        {
          "name": "",
          "type": "address"
        }
      ],
      "payable": false,
      "stateMutability": "view",
      "type": "function"
    },
    {
      "inputs": [],
      "payable": false,
      "stateMutability": "nonpayable",
      "type": "constructor"
    },
    {
      "constant": false,
      "inputs": [
        {
          "name": "_owner",
          "type": "address"
        }
      ],
      "name": "initialize",
      "outputs": [],
      "payable": false,
      "stateMutability": "nonpayable",
      "type": "function"
    },
    {
      "constant": true,
      "inputs": [],
      "name": "getNumberOfDogs",
      "outputs": [
        {
          "name": "",
          "type": "uint256"
        }
      ],
      "payable": false,
      "stateMutability": "view",
      "type": "function"
    },
    {
      "constant": false,
      "inputs": [
        {
          "name": "toSet",
          "type": "uint256"
        }
      ],
      "name": "setNumberOfDogs",
      "outputs": [],
      "payable": false,
      "stateMutability": "nonpayable",
      "type": "function"
    }
  ],
  "bytecode": "0x608060405234801561001057600080fd5b506100293361002e640100000000026401000000009004565b6100a9565b600560149054906101000a900460ff1615151561004a57600080fd5b80600560006101000a81548173ffffffffffffffffffffffffffffffffffffffff021916908373ffffffffffffffffffffffffffffffffffffffff1602179055506001600560146101000a81548160ff02191690831515021790555050565b610376806100b86000396000f3fe60806040526004361061006d576000357c0100000000000000000000000000000000000000000000000000000000900463ffffffff16806314861b22146100725780631680a5ed146100ad5780633072cf60146100d85780638da5cb5b14610107578063c4d66de81461015e575b600080fd5b34801561007e57600080fd5b506100ab6004803603602081101561009557600080fd5b81019080803590602001909291905050506101af565b005b3480156100b957600080fd5b506100c2610251565b6040518082815260200191505060405180910390f35b3480156100e457600080fd5b506100ed610296565b604051808215151515815260200191505060405180910390f35b34801561011357600080fd5b5061011c6102a9565b604051808273ffffffffffffffffffffffffffffffffffffffff1673ffffffffffffffffffffffffffffffffffffffff16815260200191505060405180910390f35b34801561016a57600080fd5b506101ad6004803603602081101561018157600080fd5b81019080803573ffffffffffffffffffffffffffffffffffffffff1690602001909291905050506102cf565b005b600560009054906101000a900473ffffffffffffffffffffffffffffffffffffffff1673ffffffffffffffffffffffffffffffffffffffff163373ffffffffffffffffffffffffffffffffffffffff1614151561020b57600080fd5b80600060405180807f446f677300000000000000000000000000000000000000000000000000000000815250600401905090815260200160405180910390208190555050565b60008060405180807f446f6773000000000000000000000000000000000000000000000000000000008152506004019050908152602001604051809103902054905090565b600560149054906101000a900460ff1681565b600560009054906101000a900473ffffffffffffffffffffffffffffffffffffffff1681565b600560149054906101000a900460ff161515156102eb57600080fd5b80600560006101000a81548173ffffffffffffffffffffffffffffffffffffffff021916908373ffffffffffffffffffffffffffffffffffffffff1602179055506001600560146101000a81548160ff0219169083151502179055505056fea165627a7a7230582040bc60e0098df276dc10b64fd981db6727316b2f149b257ea91e8ddc3b3ecf770029",
  "source": "pragma solidity 0.5.0;\r\nimport \"./Storage.sol\";\r\n\r\ncontract FunctionalUpdated is Storage{\r\n\r\n  // DON'T ADD ANY STATE VARIABLES IN THIS CONTRACT\r\n  // ONLY USE VARIABLES FROM STORAGE\r\n\r\n  constructor() public{\r\n    initialize(msg.sender);\r\n  }\r\n\r\n  modifier onlyOwner(){\r\n    require(msg.sender == owner);\r\n    _;\r\n  }\r\n\r\n  function initialize(address _owner) public{\r\n    //this function should only be able to run once\r\n    require(!_initialized);\r\n    owner = _owner;\r\n    _initialized = true;\r\n  }\r\n\r\n  function getNumberOfDogs() public view returns(uint256){\r\n    return _uintStorage[\"Dogs\"];\r\n  }\r\n\r\n  function setNumberOfDogs(uint256 toSet) public onlyOwner{\r\n    _uintStorage[\"Dogs\"] = toSet;\r\n  }\r\n\r\n}\r\n",
  "sourcePath": "C:/Users/AlexMiloski/Documents/Studies/Blockchain/Ethereum Smart Contract Security/proxyContract/contracts/functionalUpdated.sol",
  "compiler": {
    "name": "solc",
    "version": "0.5.0+commit.1d4f565a.Emscripten.clang"
  },
  "schemaVersion": "3.0.8",
  "updatedAt": "2020-07-10T09:51:18.850Z",
  "devdoc": {
    "methods": {}
  },
  "userdoc": {
    "methods": {}
  }
}