{
  "contractName": "Proxy",
  "abi": [
    {
      "constant": true,
      "inputs": [],
      "name": "_initialized",
      "outputs": [
        {
          "name": "",
          "type": "bool"
        }
      ],
      "payable": false,
      "stateMutability": "view",
      "type": "function"
    },
    {
      "constant": true,
      "inputs": [],
      "name": "owner",
      "outputs": [
        {
          "name": "",
          "type": "address"
        }
      ],
      "payable": false,
      "stateMutability": "view",
      "type": "function"
    },
    {
      "inputs": [
        {
          "name": "_currentAddress",
          "type": "address"
        }
      ],
      "payable": false,
      "stateMutability": "nonpayable",
      "type": "constructor"
    },
    {
      "payable": true,
      "stateMutability": "payable",
      "type": "fallback"
    },
    {
      "constant": false,
      "inputs": [
        {
          "name": "_newAddress",
          "type": "address"
        }
      ],
      "name": "upgrade",
      "outputs": [],
      "payable": false,
      "stateMutability": "nonpayable",
      "type": "function"
    }
  ],
  "bytecode": "0x608060405234801561001057600080fd5b5060405160208061035e8339810180604052602081101561003057600080fd5b810190808051906020019092919050505080600660006101000a81548173ffffffffffffffffffffffffffffffffffffffff021916908373ffffffffffffffffffffffffffffffffffffffff160217905550506102cc806100926000396000f3fe608060405260043610610057576000357c0100000000000000000000000000000000000000000000000000000000900463ffffffff1680630900f0101461014c5780633072cf601461019d5780638da5cb5b146101cc575b6000600660009054906101000a900473ffffffffffffffffffffffffffffffffffffffff169050600073ffffffffffffffffffffffffffffffffffffffff16600660009054906101000a900473ffffffffffffffffffffffffffffffffffffffff1673ffffffffffffffffffffffffffffffffffffffff16141515156100dc57600080fd5b60606000368080601f016020809104026020016040519081016040528093929190818152602001838380828437600081840152601f19601f820116905080830192505050505050509050600080825160208401855af43d604051816000823e8260008114610148578282f35b8282fd5b34801561015857600080fd5b5061019b6004803603602081101561016f57600080fd5b81019080803573ffffffffffffffffffffffffffffffffffffffff169060200190929190505050610223565b005b3480156101a957600080fd5b506101b2610267565b604051808215151515815260200191505060405180910390f35b3480156101d857600080fd5b506101e161027a565b604051808273ffffffffffffffffffffffffffffffffffffffff1673ffffffffffffffffffffffffffffffffffffffff16815260200191505060405180910390f35b80600660006101000a81548173ffffffffffffffffffffffffffffffffffffffff021916908373ffffffffffffffffffffffffffffffffffffffff16021790555050565b600560149054906101000a900460ff1681565b600560009054906101000a900473ffffffffffffffffffffffffffffffffffffffff168156fea165627a7a72305820a7de51cc9825a44f36b5bc2ea69394d77fe305d494a2524973a1d528e5a569b40029",
  "source": "pragma solidity 0.5.0;\r\n\r\nimport \"./Storage.sol\";\r\n\r\ncontract Proxy is Storage{\r\n\r\n  // It is ok to add state variables to the proxy contact\r\n  address currentAddress;\r\n\r\n  constructor(address _currentAddress) public{\r\n    currentAddress = _currentAddress;\r\n  }\r\n\r\n  function upgrade(address _newAddress) public{\r\n    currentAddress = _newAddress;\r\n  }\r\n\r\n  // Fallback function\r\n  function () payable external{\r\n    address implementation = currentAddress;\r\n    require(currentAddress != address(0));\r\n\r\n    //all the parameters and relevant info to send to the function\r\n    bytes memory data = msg.data;\r\n\r\n    assembly{\r\n      //mload loads something into memory, in our case, the relevant data\r\n      let result := delegatecall(gas, implementation, add(data, 0x20), mload(data), 0, 0)\r\n      let size := returndatasize\r\n      let ptr := mload(0x40)\r\n      returndatacopy(ptr, 0, size)\r\n      switch result\r\n      case 0 {revert(ptr, size)}\r\n      default {return(ptr, size)}\r\n    }\r\n  }\r\n}\r\n",
  "sourcePath": "C:/Users/AlexMiloski/Documents/Studies/Blockchain/Ethereum Smart Contract Security/proxyContract/contracts/proxy.sol",
  "compiler": {
    "name": "solc",
    "version": "0.5.0+commit.1d4f565a.Emscripten.clang"
  },
  "schemaVersion": "3.0.8",
  "updatedAt": "2020-07-10T09:42:31.526Z",
  "devdoc": {
    "methods": {}
  },
  "userdoc": {
    "methods": {}
  }
}