{
  "contractName": "Storage",
  "abi": [
    {
      "constant": true,
      "inputs": [],
      "name": "_initialized",
      "outputs": [
        {
          "name": "",
          "type": "bool"
        }
      ],
      "payable": false,
      "stateMutability": "view",
      "type": "function"
    },
    {
      "constant": true,
      "inputs": [],
      "name": "owner",
      "outputs": [
        {
          "name": "",
          "type": "address"
        }
      ],
      "payable": false,
      "stateMutability": "view",
      "type": "function"
    }
  ],
  "bytecode": "0x608060405234801561001057600080fd5b5061013c806100206000396000f3fe60806040526004361061004c576000357c0100000000000000000000000000000000000000000000000000000000900463ffffffff1680633072cf60146100515780638da5cb5b14610080575b600080fd5b34801561005d57600080fd5b506100666100d7565b604051808215151515815260200191505060405180910390f35b34801561008c57600080fd5b506100956100ea565b604051808273ffffffffffffffffffffffffffffffffffffffff1673ffffffffffffffffffffffffffffffffffffffff16815260200191505060405180910390f35b600560149054906101000a900460ff1681565b600560009054906101000a900473ffffffffffffffffffffffffffffffffffffffff168156fea165627a7a72305820d3493d9f044a706d462b8fc3b6743c163e22ba8f79540f43c6688dc5aa3e57770029",
  "source": "pragma solidity 0.5.0;\r\n\r\ncontract Storage{\r\n\r\n  // 1 mapping for each datatype\r\n  mapping (string => uint256) _uintStorage;\r\n  mapping (string => address) _addressStorage;\r\n  mapping (string => bool) _boolStorage;\r\n  mapping (string => string) _stringStorage;\r\n  mapping (string => bytes4) _bytesStorage;\r\n\r\n  // this way we can always add another variable by doing:\r\n  // _uintStorage[\"Number\"] = 10; //Number is the name of the variable\r\n\r\n  address public owner;\r\n  bool public _initialized;\r\n\r\n}\r\n",
  "sourcePath": "C:/Users/AlexMiloski/Documents/Studies/Blockchain/Ethereum Smart Contract Security/proxyContract/contracts/storage.sol",
  "compiler": {
    "name": "solc",
    "version": "0.5.0+commit.1d4f565a.Emscripten.clang"
  },
  "schemaVersion": "3.0.8",
  "updatedAt": "2020-07-10T09:42:31.471Z",
  "devdoc": {
    "methods": {}
  },
  "userdoc": {
    "methods": {}
  }
}